:1000000033C0000041C000003FC000003DC0000000
:100010003BC0000039C0000037C0000035C0000000
:1000200033C0000031C000002FC000002DC0000010
:100030002BC0000029C0000027C0000025C0000020
:1000400024C0000021C000001FC000001DC000002F
:100050001BC0000019C0000017C0000015C0000040
:1000600013C0000011C0000011241FBECFEFD8E064
:10007000DEBFCDBF21E0A0E0B1E001C01D92A830FD
:10008000B207E1F737D0BAC0BBCF1F920F920FB6BD
:100090000F9211248F939F93AF93BF938091000190
:1000A00090910101A0910201B09103010196A11D5F
:1000B000B11D8093000190930101A0930201B093C0
:1000C00003010397A105B10560F098B181E089278C
:1000D00088B9109200011092010110920201109251
:1000E0000301BF91AF919F918F910F900FBE0F9021
:1000F0001F90189580E880936100109261007894B9
:10010000809164008F7D8093640085E085BD16BC7E
:1001100081E080936E009FE094B985B987B988B972
:1001200029E031E085B1883019F425B989E004C0AF
:1001300085B195B1880F892B85B980E090E0EFEC0F
:10014000F7E03197F1F700C000000196843FF1E03D
:100150009F07A9F785B1893019F435B981E004C04A
:1001600085B195B1880F892385B980E090E0EFECE7
:10017000F7E03197F1F700C000000196843FF1E00D
:100180009F07A9F7A89BCECF21E080E090E0EFEC9D
:10019000F7E03197F1F700C0000001968A30910531
:1001A000B1F78091040190910501A0910601B091F1
:1001B00007010196A11DB11D8093040190930501D3
:1001C000A0930601B093070185B195B1892785B940
:1001D0008091040190910501A0910601B091070161
:1001E0000B97A105B10588F225B910920401109270
:1001F00005011092060110920701C7CFF894FFCFB6
:00000001FF
