:1000000033C0000041C000003FC000003DC0000000
:100010003BC0000039C0000037C0000035C0000000
:1000200033C0000031C000002FC000002DC0000010
:100030002BC0000029C0000027C0000025C0000020
:1000400024C0000021C000001FC000001DC000002F
:100050001BC0000019C0000017C0000015C0000040
:1000600013C0000011C0000011241FBECFEFD8E064
:10007000DEBFCDBF21E0A0E0B1E001C01D92A23003
:10008000B207E1F71FD049C0BBCF1F920F920FB646
:100090000F9211248F939F93909100018091010101
:1000A000981710F015B802C081E085B98091000161
:1000B0008F5F809300019F918F910F900FBE0F90E3
:1000C0001F90189580E880936100109261008091E4
:1000D00064008F7D8093640014BC81E085BD8093B3
:1000E0006E0016BC789492E094B985B980E0809354
:1000F0000101EFECF7E03197F1F700C000008F5FEE
:100100008F3FA9F780930101EFECF7E03197F1F70A
:0E01100000C000008150B1F7E9CFF894FFCF96
:00000001FF
