:1000000033C0000041C000003FC000003DC0000000
:100010003BC0000039C0000037C0000035C0000000
:1000200033C0000031C000002FC000002DC0000010
:100030002BC0000029C000003BC0000025C000000C
:1000400023C0000021C000001FC000001DC0000030
:100050001BC0000019C0000017C0000015C0000040
:1000600013C0000011C0000011241FBECFEFD8E064
:10007000DEBFCDBF21E0A0E0B1E001C01D92A136FE
:10008000B207E1F760D09EC0BBCF90E0019778F057
:100090009B01082E02C0369527950A94E2F720FFAF
:1000A00002C0599A01C059985A9A5A98EFCF0895A8
:1000B0001F920F920FB60F9211242F933F934F93DD
:1000C0005F936F937F938F939F93AF93BF93CF93E0
:1000D000DF93EF93FF938BB15B9A982F907285FD1E
:1000E0005D9880910001882321F05E9A5E981092BD
:1000F0000001992311F05A9A5A985B98C0E0D0E019
:10010000FE01EE0FFF1FEF5DFE4F608171818CE0FD
:10011000BCDF2196C032D10599F781E080930001C0
:10012000FF91EF91DF91CF91BF91AF919F918F910F
:100130007F916F915F914F913F912F910F900FBEE3
:100140000F901F90189580E88093610010926100D5
:10015000209A519A529A539A549A559A569A289894
:100160005A9859985E985C985D9A5B9A82E084BD33
:1001700095E095BD93E097BD80936E0080E090E0A0
:1001800026E0FC01EF5FFE4F20830196803291054F
:10019000C1F75C9A5D9AC0E0D0E0FE01EF5FFE4FD0
:1001A000608170E086E071DF2196C032D105A9F749
:1001B0005E9A5E9878948FEF9FE0909360018093B1
:0801C0005F01FBCFF894FFCFB3
:00000001FF
