:1000000033C0000039C0000037C0000035C0000018
:1000100033C0000031C000002FC000002DC0000020
:100020002BC0000029C0000027C0000025C0000030
:1000300023C0000021C000001FC000001DC0000040
:100040001BC0000019C0000017C0000015C0000050
:1000500013C0000011C000000FC000000DC0000060
:100060000BC0000009C0000011241FBECFEFD8E074
:10007000DEBFCDBF02D017C0C3CF80E88093610040
:1000800010926100809164008B7F8093640081E115
:1000900084B981E48CBD0DB407FEFDCF9EB585B15A
:0A00A000892785B9F8CFF894FFCF47
:00000001FF
